{
    "contractName": "Inheritance",
    "abi": [
        {
            "inputs": [],
            "stateMutability": "payable",
            "type": "constructor"
        },
        {
            "inputs": [],
            "name": "died",
            "outputs": [],
            "stateMutability": "nonpayable",
            "type": "function"
        },
        {
            "inputs": [
                {
                    "internalType": "address",
                    "name": "_wallet",
                    "type": "address"
                },
                {
                    "internalType": "uint256",
                    "name": "_inheritance",
                    "type": "uint256"
                }
            ],
            "name": "setup",
            "outputs": [],
            "stateMutability": "nonpayable",
            "type": "function"
        }
    ],
    "bytecode": "6080604052600080543460015560ff60a01b1933166001600160a81b031990911617905561027c806100326000396000f3fe608060405234801561001057600080fd5b50600436106100365760003560e01c8063f46d19821461003b578063f7a2a7c714610050575b600080fd5b61004e6100493660046101cf565b610058565b005b61004e6100cb565b6000546001600160a01b0316331461006f57600080fd5b60028054600181019091557f405787fa12a823e0f2b7631cc41b3ba8828b3321ca811111fa75cd3aa3bb5ace0180546001600160a01b039093166001600160a01b03199093168317905560009182526003602052604090912055565b6000546001600160a01b031633146100e257600080fd5b6000805460ff60a01b1916600160a01b1790556100fd6100ff565b565b600054600160a01b900460ff16151560011461011a57600080fd5b60005b600254156101cc576002818154811061013857610138610207565b6000918252602082200154600280546001600160a01b03909216926108fc92600392908690811061016b5761016b610207565b60009182526020808320909101546001600160a01b03168352820192909252604090810182205490518115909302929091818181858888f193505050501580156101b9573d6000803e3d6000fd5b50806101c48161021d565b91505061011d565b50565b600080604083850312156101e257600080fd5b82356001600160a01b03811681146101f957600080fd5b946020939093013593505050565b634e487b7160e01b600052603260045260246000fd5b600060001982141561023f57634e487b7160e01b600052601160045260246000fd5b506001019056fea264697066735822122042bb6b07c6720c243a6244cb202a50c844349d3a009fafe20d1eb145e7c01f4064736f6c63430008090033",
    "sourcePath": "c:/Users/masri/.vscode/Learning Solidity/Contract_1.sol",
    "compiler": {
        "name": "solc",
        "version": "0.8.9+commit.e5eed63a"
    },
    "functionHashes": {
        "died()": "f7a2a7c7",
        "setup(address,uint256)": "f46d1982"
    },
    "gasEstimates": {
        "creation": {
            "codeDepositCost": "127200",
            "executionCost": "46508",
            "totalCost": "173708"
        },
        "external": {
            "died()": "infinite",
            "setup(address,uint256)": "73068"
        },
        "internal": {
            "moneyPaid()": "infinite"
        }
    }
}